:020000022000DC
:1060000000000420B5620200DD620200DF620200CF
:10601000E1620200E3620200E562020000000000AB
:10602000000000000000000000000000E762020025
:10603000E962020000000000EB620200ED62020073
:10604000558F0200EF62020061990200EF620200C8
:10605000EF620200EF620200C1930200EF620200F1
:10606000EF620200EF620200EF620200EF620200E4
:10607000EF620200EF620200EF620200EF620200D4
:10608000EF620200CD7C0200EF620200EF620200CC
:10609000EF620200EF62020061BB0200EF620200E9
:1060A000EF620200EF620200EF620200EF620200A4
:1060B000EF620200EF62020000000000000000003A
:1060C000EF620200EF620200EF620200EF62020084
:1060D000EF620200EF620200EF620200EF62020074
:1060E000EF620200EF620200EF62020000000000B7
:1060F00000000000EF62020000000000EF620200FA
:10610000000000000000000000000000000000008F
:10611000000000000000000000000000000000007F
:10612000000000000000000000000000000000006F
:10613000000000000000000000000000000000005F
:10614000000000000000000000000000000000004F
:10615000000000000000000000000000000000003F
:10616000000000000000000000000000000000002F
:10617000000000000000000000000000000000001F
:10618000000000000000000000000000000000000F
:1061900000000000000000000000000000000000FF
:1061A00000000000000000000000000000000000EF
:1061B00000000000000000000000000000000000DF
:1061C00000000000000000000000000000000000CF
:1061D00000000000000000000000000000000000BF
:1061E00000000000000000000000000000000000AF
:1061F000000000000000000000000000000000009F
:1062000010B5054C237833B9044B13B10448AFF3F0
:1062100000800123237010BDC8230020000000006F
:1062200060DC020008B5034B1BB103490348AFF320
:10623000008008BD00000000CC23002060DC0200CC
:10624000154B002B08BF134B9D46A3F5803A002148
:106250008B460F461348144A121A05F047FE0F4B9F
:10626000002B00D098470E4B002B00D09847002001
:10627000002104000D000D48002802D00C48AFF3A7
:10628000008005F001FE2000290004F023FA05F04B
:10629000E7FD00BF0000080000000420000000002F
:1062A00000000000C8230020302D00200000000066
:1062B000000000000649074A074B9B1A03DD043B18
:1062C000C858D050FBDC02F0DDFBFFF7B9FF00003F
:1062D00058DD020000230020C8230020FEE7FEE76F
:1062E000FEE7FEE7FEE7FEE7FEE7FEE7FEE7FEE786
:1062F000F0B595B000241D460E460846174602F03C
:106300005DFA304623460822099505A91A9D08978B
:106310000D950A948DF82C400C9402F0B3FA9DF878
:1063200014308DF81140DDE9061003F00302012A54
:10633000CDE9020128D0022A04D0304602F042FA08
:1063400015B0F0BDBDF81650C3F3C2038DF8103080
:10635000C5F389150827082D2C4628BF08243B467D
:1063600022460EA9304602F08DFA2D1B214608ABBD
:1063700002AA0EA8274400F0FFFD002DEBD1304605
:1063800002F020FA15B0F0BDBDF81470059DC7F3FA
:106390008312C3F3C2040EA93046920008238DF87D
:1063A0001040C7F3831702F06DFAC5F3952508ABCB
:1063B0003A4628460EA9009302AB00F065FD304630
:1063C00002F000FA15B0F0BD014B01221A707047BF
:1063D00028240020704700BF00B583B0044B009311
:1063E000044A4023FFF784FF03B05DF804FB00BFBD
:1063F000F9630200E823002038B50E480E4D0378FB
:106400000E4CEB5C00252570D2B253B1043003F082
:10641000FDFF58B90A4B1B7813B12378002BFCD031
:1064200038BD0C3003F02AFD0028F3D001F032F81B
:10643000F0E700BF00230020202D002028240020AA
:10644000E42300202DE9704319481A4A0378D35CED
:1064500088B02BB3043003F03DFF174D0FCD6C46D1
:106460000FC495E80F004FF0EB7684E80F004FF073
:1064700006084FF0FF394FF0FF344FF0FF350C485E
:10648000069600226946CDE90089CDE9024502F071
:10649000F3FC48B9094B00221A7008B0BDE87083BC
:1064A0000C3003F06DFCD8E700F0F4FFF2E700BF1A
:1064B00000230020202D0020F8CE0200E42300203D
:1064C000F0B5154D0FCD89B06C460FC495E80F009F
:1064D0004FF0EB7C84E80F0006264FF0FF374FF0BB
:1064E000FF344FF0FF350D4A0D48CDF818C069460E
:1064F000CDE90067CDE9024502F0BEFC20B9094BA9
:1065000001221A7009B0F0BD00F0C4FF054B012252
:106510001A7009B0F0BD00BFF8CE0200C9630200D6
:1065200000230020E423002008B5FFF7C9FF04483A
:10653000042100F025FC034B01225A7108BD00BF65
:1065400040DD02001423002038B50C4B0C48002419
:1065500000250022C3E90045FF21C3F818249960F3
:1065600083F82024C3F8142402F0DCF8044610B9A0
:10657000044802F0FDF9204638BD00BF0025002088
:10658000B4DC020050CF020099B10E4B0E495B1AE9
:10659000DB0815D030B400220C4D02E001329342EA
:1065A0000BD035F822408442F8D151F8320030BC8B
:1065B0007047054951F830007047002030BC7047E3
:1065C0001846704740DD0200C8DC0200C8230020E6
:1065D000094B013903EBC00003290BD8DFE801F0B8
:1065E0000402080604207047022070474079704773
:1065F0000079704700207047C8DC02002DE9F047A1
:10660000954CD4E900239A4284B063D00023C4F8A7
:106610001834BFF34F8FD4E9013503EA0501CA1CD2
:1066200004EB820614F82220500719D52768327827
:1066300002F00302012A43D0022A03D172880233F6
:1066400003EB921305EA0301D4F81804CA1C04EB07
:10665000820628B99F4239D914F822205207E6D47D
:1066600004EB81015A1CC96801912A4004EB8202A3
:1066700001F00301D2680292022903F102062DD033
:10668000012900F09580D4F810543DB12B682846BC
:106690009B689847EB681D68002DF7D16F48704BD9
:1066A0007049C01AC008000440F0020000F0E0F891
:1066B000D4E90030C01A18BF012004B0BDE8F0874B
:1066C00032880233C2F383121344BBE7676004B01D
:1066D000BDE8F087002004B0BDE8F087BDF80630C3
:1066E0006148C3F38919B9F1500FC84628BF4FF06C
:1066F000500868F38F1308F10801ADF8063002F076
:1067000013F807460028BED002F058F800230822EC
:1067100001A9384602F082F825EA06030133B8EBF6
:10672000830F4FEA830A7DD9BAF1000F00F08D8004
:1067300005EA06010331A8EB0A0804EB81010823EE
:10674000524638465FFA88F802F068F847494246F0
:106750000AF10803384602F061F809F1030906EB73
:106760009906D4F81834002B6BD1D4F8105465B1C5
:10677000EB685A7928463946002A5ED02B681B6898
:106780009847EB681D68002DF2D1384602F01AF8E0
:1067900000230DF103008DF8033001F007F9D4F860
:1067A000183403B966609DF8030001F025F97FE70E
:1067B000BDF804302C48C3F38312062A28BF0622F2
:1067C000911C62F389138900ADF8043001F0ACFF2D
:1067D000074600283FF457AF01F0F0FF00230822DE
:1067E00001A9384602F01AF8BDF8043013F4707F9E
:1067F000B7D04FF00008314629404FEA88030331F3
:10680000083304EB81010422384602F007F8BDF892
:10681000043008F10108C3F38313434506F1010670
:10682000E9D89EE705EA0601033104EB81014246FF
:106830000823384601F0F2FF8FE71D68002D97D13D
:10684000A3E7384601F0BEFF32E708494246082375
:10685000384601F0E3FF80E700250020F0DC02006D
:10686000C8DC020038CF0200B4DC02000C25002096
:106870002DE9F04F644C87B0002306460DF10B0064
:106880008DF80B30A568019101F090F8D4E901234F
:1068900027681A440132D21B012A00F2858004F2D3
:1068A0001C4804F5836A04F214491BE0BDF80E305D
:1068B000C3F389130333090C0BEB930B4846009188
:1068C00001F018FB009900283ED04046C4F804B0FF
:1068D00001F0E4FAD4E90113226819440131891A5C
:1068E000012962D80121404601F0D8FA504601F052
:1068F000F1FA484601F0EEFAD4E9013C03EA0C0251
:10690000D11C04EB810014F821E01EF0040F0EF0FE
:10691000040129D104EB8202591CD268039201EAD6
:106920000C0104EB810102F00302012AC96803F1A2
:10693000020B32D0022AB9D000214846009101F062
:10694000D9FA00990028C0D14046C1E743880BEB33
:1069500093130CEA0302D11C04EB810014F82110FC
:1069600001F004010029D5D090F800E00EF0030EEC
:10697000BEF1010F0BD0BEF1020F03F1020B02F1C9
:10698000030EE3D004EB8E000029EDD1C2E70288AC
:106990000233C2F383121344DBE7BDF80C30C3F3B8
:1069A0008313090C9B4489E73A46134003330232B0
:1069B00005219DF80B0044F82310226001F01CF81B
:1069C0000021124801F040FA80F31000F1007B1C16
:1069D0002B40019A01F038013D4004EB830341F064
:1069E00001010004033540EA164641EA8221DE60D7
:1069F00044F8251094F820341BB1FFF7FFFD002860
:106A0000FBD107B0BDE8F08F002500201C29002035
:106A10002DE9F04F684C89B0002307460DF11300B3
:106A2000CDE902128DF81330A56800F0BFFFD4E95C
:106A3000012326681A440132921B022A00F2858043
:106A400004F21C4804F5836A04F214491BE0BDF803
:106A50001630C3F389130333090C0BEB930B484631
:106A6000019101F047FA019900283ED04046C4F850
:106A700004B001F013FAD4E901132268194401317A
:106A8000891A022962D80121404601F007FA5046CE
:106A900001F020FA484601F01DFAD4E9013C03EA6E
:106AA0000C02D11C04EB810014F821E01EF0040F4D
:106AB0000EF0040129D104EB8202591CD268059220
:106AC00001EA0C0104EB810102F00302012AC9680A
:106AD00003F1020B32D0022AB9D0002148460191BD
:106AE00001F008FA01990028C0D14046C1E7438867
:106AF0000BEB93130CEA0302D11C04EB810014F896
:106B0000211001F004010029D5D090F800E00EF02A
:106B1000030EBEF1010F0BD0BEF1020F03F1020B09
:106B200002F1030EE3D004EB8E000029EDD1C2E7A1
:106B300002880233C2F383121344DBE7BDF814303A
:106B4000C3F38313090C9B4489E732461340033394
:106B5000033245219DF8130044F82310226000F011
:106B60004BFFB31C2B4004EB8303039A1348DA60FA
:106B7000002101F069F980F31000F900731C2B402B
:106B8000029A01F03801354004EB830341F04101E2
:106B90000004033540EA174741EA8221DF6044F8E8
:106BA000251094F820341BB1FFF728FD0028FBD1F5
:106BB00009B0BDE8F08F00BF002500201C2900208F
:106BC0002DE9F04F6C4C89B0002607460DF11300FB
:106BD000CDE9011203938DF81360A56800F0E6FE7D
:106BE000D4E9012326681A440132921B032A00F2D9
:106BF000858004F21C4804F5836A04F214491BE002
:106C0000BDF81630C3F389130333090C0BEB930B58
:106C10004846009101F06EF9009900283ED04046A8
:106C2000C4F804B001F03AF9D4E901132268194418
:106C30000131891A032962D80121404601F02EF959
:106C4000504601F047F9484601F044F9D4E9013CC7
:106C500003EA0C02D11C04EB810014F821E01EF0C1
:106C6000040F0EF0040129D104EB8202591CD268F2
:106C7000059201EA0C0104EB810102F00302012AF2
:106C8000C96803F1020B32D0022AB9D0002148466C
:106C9000009101F02FF900990028C0D14046C1E7CA
:106CA00043880BEB93130CEA0302D11C04EB810025
:106CB00014F8211001F004010029D5D090F800E06B
:106CC0000EF0030EBEF1010F0BD0BEF1020F03F167
:106CD000020B02F1030EE3D004EB8E000029EDD18C
:106CE000C2E702880233C2F383121344DBE7BDF824
:106CF0001430C3F38313090C9B4489E732461340D5
:106D00000333043285219DF8130044F823102260D8
:106D100000F072FEB21C2A40F31C2B4004EB8202EE
:106D200004EB830C029BD3600021039B1348CCF837
:106D30000C3001F089F880F31000F900731C2B402F
:106D4000019A01F03801354004EB830341F08101E1
:106D50000004033540EA174741EA8221DF6044F826
:106D6000251094F820341BB1FFF748FC0028FBD114
:106D700009B0BDE8F08F00BF002500201C290020CD
:106D800030B4154DD5F810140446002071B10B46EF
:106D900001E01B6853B1DB681A798242F9D10130F6
:106DA0000A28F3D14FF0FF3030BC7047E368187108
:106DB000D5F810344BB1DA68E36812681A60D5F878
:106DC0001034DB681C6030BC7047C5F81044E268C2
:106DD000136030BC704700BF0025002038B5094B58
:106DE000D3F81044012583F820544CB1E3685D7159
:106DF000236820465B689847E3681C68002CF5D13F
:106E000038BD00BF0025002030B5C38885B00446DA
:106E10000D461BBB217A05291ED0627A82B9134A1E
:106E2000A08852F8212003920021FFF7ADFB039ABE
:106E30000F490346284605B0BDE8304001F0D6B8FA
:106E4000A088FFF7C5FB0B4B0B4953F820202846C1
:106E500001F0CCF8217AE2E705B030BD074A009294
:106E60000749084A284601F0C1F8D3E728D00200B4
:106E700088CF020004D0020084CF02007CCF020041
:106E800064CF02005CCF02002DE9F04385B04FF0E3
:106E9000000C0C9C814694F80C8084F80CC00E46C3
:106EA0001746184621461D46FFF7AEFF062F09D8A4
:106EB000DFE807F0042E343B444F1F0049462046CC
:106EC00001F094F82B7A052B05D06B7A5BB9274932
:106ED000204601F08BF8204601F07CF884F80C8005
:106EE00005B0BDE8F083224A2249204601F07EF831
:106EF000EDE7D6E90413F2680393B3680291CDE994
:106F000000324946D6E90023204601F06FF8D9E760
:106F100032684946204601F069F8D3E7D6E90023F4
:106F20004946204601F062F8CCE7B3680093D6E901
:106F300000234946204601F059F8C3E7D6E902325A
:106F400001920093D6E900234946204601F04EF80D
:106F5000B8E7D6E90321B3680291CDE9003249468A
:106F6000D6E90023204601F041F8ABE794CF0200B8
:106F70007CCF020084CF0200082900D970472DE998
:106F8000F04F9B4683B000241B7B8BF80C400D46D2
:106F900006465946104690460193DFF8D0902C4F94
:106FA000FFF732FF05E0325D013401F01FF8082CD5
:106FB00009D0A54239465846F5D84946013401F072
:106FC00015F8082CF5D12349DFF8A490224C234F63
:106FD000584601F00BF84FF0000A0DE0D15D11F0BA
:106FE000970F08BF2E22214658460AF1010A00F0E9
:106FF000FDFFBAF1080F10D0554505D916F80A2043
:107000007E2AEBD92E22EEE7494658460AF1010ABC
:1070100000F0ECFFBAF1080FEED198F80830052B1C
:1070200002D098F8093063B90D49584600F0DEFFE8
:10703000584600F0CFFF019B8BF80C3003B0BDE841
:10704000F08F084A0849584600F0D0FFECE700BF2F
:1070500098CF0200A4CF0200A8CF0200C5DA020038
:1070600094CF02007CCF020084CF0200A0CF0200A8
:1070700090CF020038B5174B1D783DB3164B1968F9
:10708000C0B200230C4604E00133AB4204F1080413
:107090001CD011F833209042F6D102F081F96378C8
:1070A000A3F10103B3FA83F35B09834200D038BD37
:1070B0000A4BD3E900231343F9D1094B0948196856
:1070C0000022BDE83840490800F008BC00231B78C6
:1070D000FFDE00BFBC290020102A0020E829002084
:1070E000C0290020C82900202DE9F04FDFF8548284
:1070F00098F8003083B0002B00F01981DFF8489237
:107100008C4F8D4E00254FF0010A3C6814F8350075
:1071100002F046F904EBC50314F835405B784FEAFA
:10712000540C14F0010E16F80C10A3F10103B3FA7D
:1071300083F314BF0A0901F00F025B09042A00F26D
:10714000A080DFE802F0725D32200300834240F04D
:10715000AB80BEF1000F0CBFF0230F2303EA010345
:107160000CBF03213021194306F80C1098F80020B9
:1071700001359542C9DBD9E90023134340F0CD80A6
:1071800003B0BDE8F08F83427BD0BEF1000F0CBF8F
:10719000F0230F2303EA01030CBF0421402119430C
:1071A00006F80C1098F80020E2E783426CD1BEF19B
:1071B000000F0CBFF0230F2303EA010398F800200F
:1071C0000CBF03213021194306F80C10002AD2D03D
:1071D000D7F800C00023614603E0934201F10801A3
:1071E000C6D01CF83300A04203F10103F5D14B686F
:1071F000002BBDD020460121984798F80020B7E722
:10720000834219BF0020034602232020BEF1000F55
:107210000CBFF0220F2201EA020118BF03460B4304
:1072200006F80C3098F80020A2E7834229D1BEF17D
:10723000000F14BF0F23F02303EA010314BF102132
:10724000012119430DF107004FF0000306F80C105F
:107250008DF8073000F0AAFBD9E90032A4F1200133
:10726000C4F120000AFA01F12AFA00F001430AFAF7
:1072700004F4114323439DF80700C9E9003100F0ED
:10728000BBFB98F8002073E7BEF1000F0CBFF023A2
:107290000F2303EA01030CBF01211021194306F853
:1072A0000C1098F8002063E7BEF1000F14BF0F2305
:1072B000F02398F80000194006F80C1098B1D7F8A0
:1072C00000C00023624603E0834202F108020AD0B4
:1072D0001CF83310A14203F10103F5D1536813B137
:1072E0000021204698474FF000030DF107008DF86C
:1072F000073000F05BFBD9E90032A4F12001C4F1B2
:1073000020000AFA01F12AFA00F001430AFA04F413
:1073100022EA010123EA0403ADE7084B0848196893
:107320000022490800F0DAFA03B0BDE8F08FDFF878
:10733000189020E7102A0020F0290020C029002002
:10734000C8290020BC290020E8290020092A43D9A7
:107350002DE9F04182B0144606460D4601F07EFE4E
:10736000002832D0214A2249224B16600D70224853
:107370001C600021202204F0B9FD204B00200021D8
:107380006C1EC3E90001E4B245B3DFF87C8006EB74
:10739000C404032702E0A64220D01C469DF8063014
:1073A000A57820788DF8047023F00703424601A9E0
:1073B0008DF806308DF8055001F05AFEA4F108034F
:1073C0000028E8D002B0BDE8F08101F0F9FD002806
:1073D000C8D002B0BDE8F08107207047084A0948CC
:1073E000002100F06DFA02B0BDE8F081102A002003
:1073F000BC290020C0290020F0290020E829002015
:10740000E970020048D002007570020070B5084DA6
:107410002B785BB1074E00243368012113F8340048
:1074200001F018FF2B780134A342F5D8002070BD7D
:10743000BC290020102A002070B5124D2B7882B094
:1074400053B1114E0024336813F8340001F06EFF7D
:107450002B780134A342F6D800230DF107008DF8F4
:10746000073000F0A3FA094B9DF80700002400251F
:10747000C3E9004500F0C0FA054800F075FA02B013
:1074800070BD00BFBC290020102A0020E829002080
:10749000C829002000B585B00346002101AA44F2A6
:1074A0000100CDE90111039300F004F805B05DF887
:1074B00004FB00BF10B572B6FFF790FCFFF79EF813
:1074C0000028FBD1104B114C1149E41AE4082404A4
:1074D00044F00100FFF7CCF90E4B1B68DB0700D529
:1074E00000BE0D4944F00200FFF7C2F9BFF34F8F11
:1074F0000A490B4BCA6802F4E0621343CB60BFF346
:107500004F8F00BFFDE700BFC8DC0200F0DC0200C7
:107510004CD00200F0ED00E058D0020000ED00E099
:107520000400FA05D0E90223D1E90201994208BF1B
:1075300090422CBF01200020704700BF2DE9F04F82
:107540002DED028B85B0064600F080FB40B1B54AB8
:10755000D2E9003113F1807341F10001C2E9003139
:107560000021304600F08EFBAF4C60B1236853B170
:10757000AE4B25681B7823B11DB12B7F002B40F04B
:107580001C81002323600121304600F07BFB002892
:1075900040F0F680A64803A900F0F8FB78B3A54DAB
:1075A000DFF88882A24F0BE0002B00F0CD8003A90A
:1075B000384600F01BFC03A9384600F0E7FBF0B1A9
:1075C0000378012B12D0022BEED128464FF0000990
:1075D00001F006FA30B180F81C90284601F000FA5C
:1075E0000028F8D1012388F80030E0E741682368DB
:1075F000994200F0BA80284601F0FCF9D7E7DFF89D
:1076000034828D4FDFF81C9208EE106A37E0404656
:1076100001F0E6F905463846AB68EA680193009246
:1076200000F040FB854E8446D9E90001D6E90023ED
:1076300010EB0C0041F10001994208BF9042DDE9D6
:10764000002303D210F1807041F10001B3EB000A76
:1076500062EB010BBAF1010F7BF1000329DBBAF5F4
:10766000350F6BD2AA684FF496030021384600F01C
:1076700067FA00285AD00D281FD000232360404607
:1076800001F0B4F9002873D02368002BBFD0236821
:10769000D0E90201D3E90223994208BF904248D2BF
:1076A00023681B7F002BB2D02168404601F084F98B
:1076B000ADE70021384600F0D9FA5C4B1B78002B6F
:1076C000DBD02B7F002BD8D0384600F0EBFA844675
:1076D000D9E90001D6E9002310EB0C0041F10001CB
:1076E000994208BF904203D210F1807041F100012D
:1076F000D5E90223994208BF904259D32B6903B9B7
:107700002B77D5E90530984729690029B5D02B7F1B
:10771000002BB2D0D5E90223521843F10003C5E98A
:1077200002232946404601F047F9A6E72368BBB18A
:10773000256005B0BDEC028BBDE8F08F384600F047
:10774000B1FA3F4A02448EE743681A7F002A7FF469
:107750002EAF01221A774168284601F02DF926E75D
:1077600018EE100A00F0BEF9E2E7002323601EE7DE
:107770002368002BDDD118EE100A00F0B7F9D8E726
:107780002D482E4D00F08EFA264BD3E90089D5E91D
:10779000002318EB000849F10009994508BF9045FE
:1077A00003D218F1807849F10009C5E90089F1E6B2
:1077B0002946404601F000F95FE71F4800F072FAE1
:1077C000184A1E4BD2E90089D3E9002318EB0008C0
:1077D00049F10009994508BF904503D218F1807816
:1077E00049F10009D5E90223994508BF904529D3FD
:1077F0002B6903B92B77D5E905309847296900290A
:107800003FF4BFAE2B7F002B3FF4BBAED5E9022384
:10781000521843F10003C5E902230648294601F046
:10782000CBF8AEE6182A0020982A0020202A002053
:107830007C2A002078D002001C230020902A0020FF
:10784000FFFFB4000248294601F0B6F899E600BFF0
:1078500078D0020010B5134B13491B68134882B04F
:1078600058220193082300F03BFA044610B1204649
:1078700002B010BD0E4A0F4801A900F0D5F8044629
:107880000028F4D10B48012100F0D6F90123194654
:10789000094A084800F02EF9084B012220461A70C8
:1078A00002B010BD74D00200242A00207C2A0020DF
:1078B0003D7502001C230020FFFF7F00202A0020CE
:1078C0004AB1A1F101010368B1FA81F14909C3E9A3
:1078D0000412002070470720704700BF037F0BB1E0
:1078E00000207047F0B5826183B004461A480D4607
:1078F00000F0D8F9194B1A49D3E90023D1E9006700
:10790000121843F10003BB4208BFB24203D212F186
:10791000807243F100035219216943F10003C4E965
:10792000022301B125610F4801A900F0F1F948B126
:1079300000254460057001A90A4800F017FA20B933
:1079400003B0F0BD042003B0F0BD034800F0AEF971
:10795000284603B0F0BD00BF1C230020182A0020D9
:10796000902A00207C2A002030B5002583B00446F0
:10797000057701A90B4800F0CBF978B101224460EA
:10798000027001A9074800F0F1F908B903B030BD51
:10799000054800F08BF9284603B030BD042003B041
:1079A00030BD00BF7C2A00201C23002070B4EFF300
:1079B000108472B60D4B9A68AAB90D490D4E012577
:1079C0009D60D1F8805035401D60C1F88060D1F8CD
:1079D00084505D604FF0FF33C1F88430027004B909
:1079E00062B670BC704701230370F8E7142D0020C5
:1079F00000E100E0FC06FFBD094B9A687AB170B95E
:107A000010B4EFF3108172B6064A1C6814605C680B
:107A10005460986001B962B65DF8044B70477047D6
:107A2000142D002000E100E070B5264C4379264E6D
:107A300004EBC30546F823202D79002D35D10368CA
:107A40000A88C3F8082590F904308A78002B24DBD3
:107A500003F1604303F561435201D2B283F800237E
:107A600090F90420194E1A4B012502F01F0152090A
:107A700005FA01F146F82210164E4279164944F8EB
:107A80003200981B04EBC204C008000440F003005D
:107A90002571FEF7EDFE002070BD104903F00F03C5
:107AA00052011944D2B20A76DAE70A4B08480C4967
:107AB000C01AC008000440F00200FEF7D9FE0820FA
:107AC00070BD00BF9C2A0020A42A002000E100E035
:107AD00000DD0200C8DC0200A8D00200FCEC00E0DF
:107AE00084D00200036801221A60704703680122F3
:107AF0005A607047F0B404684FF480358D40C4F884
:107B00000853066801F15004C6F84853A4000668FB
:107B1000A4B20027375182B036590468019601F5A6
:107B2000A87122F07F42019E44F821200268C2F829
:107B3000445313B10368C3F8045302B0F0BC704758
:107B40002DE9F04704464FF4803600688E40C0F8B7
:107B500048632068C0F80863206800EB81058A4606
:107B6000D0F80415D5F84005C5F840150AF15005C0
:107B7000AD002768ADB24FF0000847F8058082B02D
:107B8000401A7F59009720F07F40012822F07F475C
:107B90009946009A41D02268D2F80455C2F844634D
:107BA0007A1B22F07F42012A0AF5A87125D02268AB
:107BB00042F821702068D0F804557A1BC9F1FF13F0
:107BC000013A03F57F4322F07F42934211D342B141
:107BD000C0F8446323680020C3F8046302B0BDE822
:107BE000F087013740F821702068D0F804359D42B5
:107BF000EED00D2002B0BDE8F08720680D4B0137B4
:107C000040F8217043F001034FF4806098472068EA
:107C1000D0F804359D42DBD0EBE7064A4FF4806094
:107C200042F001029047226842F8058052590192C1
:107C3000019AB0E7C0D0020002680223C2F84433C0
:107C400011B10268C2F80433704700BF0368D3F86B
:107C5000040100B97047002282B0C3F80421D3F8B0
:107C600004310193019B012002B0704702684FF478
:107C7000803303FA01F1C2F848130368C3F808130C
:107C8000704700BF50318900036889B2585800B965
:107C9000704700225A5082B05B580193019B01202B
:107CA00002B070470368D3F80405704790F90430B8
:107CB00005485A090121403203F01F0301FA03F37A
:107CC00040F82230704700BF00E100E0024A034B59
:107CD00010681B68184700BF9C2A0020A42A0020B7
:107CE00099B110B4B2FBF3F403FB1424A4B244B969
:107CF000C0E9001484608281C38120465DF8044B92
:107D0000704709205DF8044B70470E20704700BF94
:107D100030B482B050E8013F9DB2C48925448489C3
:107D2000A54228BF2D1B0489A54202BFBFF32F8F98
:107D3000002207E0C5EA030540E80154002CE9D120
:107D40004FF001028DF803200193019B9DF8032061
:107D50000B602AB10B880068184402B030BC704731
:107D600002F0FF03184602B030BC70470A884B8807
:107D70009A4201D00020704750E8012FC2EA024227
:107D800040E80123002BF7D10120704730B482B0C6
:107D900050E8023F1FFAA3F5C488A54202BFBFF313
:107DA0002F8F00220DE0C48925448489A54228BF75
:107DB0002D1BC3EA054540E80254002CE8D14FF0E2
:107DC00001028DF803200193019B9DF803200B60B5
:107DD0002AB14B880068184402B030BC704702F0EA
:107DE000FF03184602B030BC704700BF0A884B88BA
:107DF0009A4201D00020704750E8022FC2EA224286
:107E000040E80223002BF7D1012070474A090123E3
:107E100001F01F0100EB820003FA01F100F022B82B
:107E200001F01F0201234909934000EB8100D9436F
:107E300000F026B84B0901F01F0150F82300C8409C
:107E400000F00100704700BF10B4034653E8000F74
:107E50000A4643E8002494F0000FF7D15DF8044B84
:107E6000704700BF10B4034653E8002F42EA0100F8
:107E700043E8000494F0000FF6D15DF8044B70471E
:107E800010B4034653E8002F02EA010043E800045F
:107E900094F0000FF6D15DF8044B704710B4034620
:107EA00053E8002F02EB010043E8000494F0000FB8
:107EB000F6D15DF8044B704710B4034653E8002F29
:107EC000A2EB010043E8000494F0000FF6D15DF846
:107ED000044B704710B40346012253E8001F41EAE7
:107EE000020043E8000494F0000FF6D15DF8044B63
:107EF000704700BF10B40346002253E8000F00EAA9
:107F0000020143E8001494F0000FF6D15DF8044B31
:107F1000704700BFB8B130B4D0E90112521A0468FA
:107F2000D2B2531E2160DBB242B101680A685C1E06
:107F3000551C0D601370E3B2FF2BF6D103680020CF
:107F4000187130BC70470E20704700BFF0B583B089
:107F5000044600250DF107008DF80750FFF726FDB8
:107F6000D4E900311A688A4210D9511E196021687B
:107F7000A3680F6812F8015C0A79268AE068DB1BA7
:107F8000DBB29A4206FB050538BF0B719DF807006E
:107F9000FFF732FD284603B0F0BD00BF30B50546FF
:107FA00083B000230DF107000C468DF80730FFF772
:107FB000FDFC2A681368591C1160E9682A8A641A52
:107FC000B4FBF2F41C709DF80700FFF715FD03B039
:107FD00030BD00BF826842B110B5044643690168F4
:107FE000006998470023A36010BD70470EB400B528
:107FF00082B0039921B104AB01AA019300F0ACF85F
:1080000002B05DF804EB03B0704700BF2DE9F04FFC
:10801000164683B0B142DDE90C920F4605469A46FA
:10802000C0F095800B464FF00108B3FBF6F39E427B
:1080300008F10108F9D9D04538BFD04612F0010344
:10804000019302D1B9F1000F5ED1AA68012403E0C7
:108050000AF1FF3A06FB04F4BAF1010FF8D8B7FBB6
:10806000F4F39E42F6D9DFF8ECA007E0B442B4FB8B
:10807000F6F31AD3AA681C46B7FBF3F31AF803B059
:10808000BBF10A0F04FB137728D02B68511CA960A1
:1080900003F802B0D5E901329A42E7D32846FFF748
:1080A00099FFB4FBF6F3B442E4D2019B9BB1B9F162
:1080B000000F10D02024C84509F1FF390BD2AB685E
:1080C0002A68591CA960D454D5E901329A4214D2C5
:1080D000B9F1000FEFD103B0BDE8F08F511C2B6850
:1080E000A9604FF00D019954D5E901329A42CCD3E1
:1080F0002846FFF76FFFAA68C7E72846FFF76AFF21
:10810000B9F1000FD7D1E6E793071AD42024AA6863
:10811000C84502F1010199D22B68A9609C54D5E9A8
:1081200001329A4209F1FF3903D2B9F1000FEFD1C0
:108130008CE72846FFF74EFFAA68B9F1000FE7D198
:1081400084E7BAF1000F0CBF30242024DFE74FF0A2
:10815000010870E7C8D00200002900F054822DE920
:10816000F04FDFF8B8950C7885B0064690460D467E
:108170004FF00D0A10E00A2CB36800F0AD803268B1
:10818000591CB160D454D6E901329A4280F0A080E3
:108190002C78002C00F087800135002C00F08380C3
:1081A000252CE8D1294600270D4611F8012B2D2A50
:1081B00000F08880302A00F088802B2A7AD02A2A82
:1081C00000F09980A2F13003092B4FF000040BD886
:1081D00004EB840402EB440415F8012FA2F13003F0
:1081E000092BA4F13004F3D92E2A00F0908000234B
:1081F00001E015F8012F02F0FB016829F9D0252ACA
:1082000000F07781583AD1B2202947D8202A45D8A2
:10821000DFE812F03501440044004400440044000B
:10822000440044004400440044004301130144005E
:10823000440044004400130144004400440044004E
:1082400044004400D20044004400A20044009400D2
:1082500044004400350101209842024638BF1A46C6
:108260000292002C40F05081B80740F16E81002B43
:1082700040F04E821C46BBF1000FC0F20A827A0722
:1082800000F11A8207F00302022A00F0EA81CDE928
:10829000004759460A223046FFF7B8FE01352C78D0
:1082A000002C7FF479AF337B002B40F01C8105B0AC
:1082B000BDE8F08F0D4611F8012B2D2A47F0040779
:1082C0007FF478AF47F001076EE747F002076BE7EE
:1082D0003046FFF77FFE5BE73268591CB16002F859
:1082E00003A0D6E901239342FFF449AF3046FFF7DC
:1082F00071FEB36843E7D8F800301A1DC8F80020B3
:108300006A781C682E2A05F101057FF470AF6A783F
:10831000A2F13003092B05F101054FF000033FF6F0
:108320006AAF03EB830302EB430315F8012FA2F1BD
:1083300030010929A3F13003F3D95CE7D8F8002014
:10834000111DC8F8001011683046CDE900470A2217
:10835000FFF75CFE0135A2E7D8F800301A1DC8F817
:10836000002017F00107D3F800B040F0F080BBF117
:10837000000F03D0584603F0D9FD0746BC4240F237
:108380004381002C00F04081202205E0BC4200F037
:108390003B81002C00F03881B1683368481CB06024
:1083A0005A54D6E90130984204F1FF34EED33046F6
:1083B000FFF710FE2022E9E7D8F80020131DC8F8C7
:1083C0000030B36831681768581C3022B060CA5456
:1083D000D6E90123934280F0EF803268581C78215F
:1083E000B060D154D6E901329A4280F0E0800F2F7C
:1083F00003D93B461B090F2BFCD84FF0805406E0F5
:108400000F2C4FEA14137FF649AFB2681C46B7FB36
:10841000F4F319F803B0BBF10A0F04FB137754D03F
:108420003368511CB16003F802B0D6E901329A42B8
:10843000E6D33046FFF7CEFDE2E7D8F80020111D65
:10844000C8F80010D2F800B08BEAEB72A2EBEB7226
:10845000092A7FF700AFDFF8C8C20120114663295F
:10846000ACFB02E200F101004FEAD202F6DC9842D6
:10847000024638BF1A460292002C45D1F4E6D8F8DD
:108480000020111DC8F8001011683046CDE90047E2
:108490001022FFF7BBFD013501E7D8F800301A1DA7
:1084A000C8F800201C78B3680A2C00F011813268EB
:1084B000591CB160D454D6E901329A42FFF4EEAEB1
:1084C0003046FFF787FD0135E9E63368511CB1609E
:1084D00003F802A0D6E901329A42A1D33046FFF751
:1084E00079FDB2689CE7304605B0BDE8F04FFFF774
:1084F00071BDB3683168581CB060CA54D6E9013206
:108500009A42DDD20135CAE6BBF1000F59DB7A078A
:1085100057D4B80702D5002B3FF4ADAEF9073FF5AD
:10852000AAAE94B120220299A142BFF4A4AEB168D0
:10853000481CB06030684254D6E90101814204F120
:10854000FF3480F0D480002CEDD1002493E69BF81A
:108550000030002B00F0E080B0685F46CBF10102F4
:108560000A2B02EB070B3CD0411CB16031680B5465
:10857000D6E90130984226D217F8013F002BEFD1FF
:108580005C457FF68BAE202702E05C453FF486AE6B
:10859000B2683368511CB1609F54D6E901329A42E7
:1085A00004F1FF34F1D33046FFF714FDEDE7304618
:1085B000FFF710FDB2681AE73046FFF70BFDB3680E
:1085C0000BE7013CA5E730460292FFF703FD17F8E1
:1085D000013F002BD4D0029AB0680A2B02EB070BA4
:1085E000C2D1411CB160316801F800A0D6E9011088
:1085F0008842B9D33046CDE90232FFF7EBFCDDE922
:108600000232B068B0E770479BF80040002C3FF49E
:1086100045AE0A2CB0680ED03368421CB2601C54C0
:10862000D6E90130984214D21BF8014F002C3FF4D8
:1086300035AE0A2CF0D13368421CB26003F800A0BA
:10864000D6E901309842E7D33046FFF7C3FCB06863
:10865000E2E73046FFF7BEFC1BF8014F002CD8D1F3
:108660001CE6002B7FF413AE8CB130220299A1429C
:10867000BFF40DAEB168481CB06030684254D6E912
:108680000101814204F1FF343BD2002CEED10024E1
:10869000FDE5B1684A1CB26032682D205054D6E91D
:1086A00001219142CBF1000BFFF4ECAD3046039376
:1086B000FFF790FC039BE5E5B1684A1CB2603268A5
:1086C0002B205054D6E901219142FFF4DBADEDE7B8
:1086D0003268591CB16002F803A0D6E90123934225
:1086E000FFF4E5AE3046FFF775FCB368DFE63046D1
:1086F0000393FFF76FFC039B2022002C7FF413AF42
:1087000023E730460393FFF765FC039B3022BCE769
:10871000F9073FF5B0AD18E79B4631E7C8D0020036
:10872000CDCCCCCCFFF7F6BB2DE9F041058A033167
:10873000043D4E198046B6FBF5F6FFF707FCA0B3E3
:10874000F6B24FF48073013E0446C580C0F8008045
:1087500083802BD00346002508E06279AE4202F107
:10876000010262713860C0F800801FD040461F4689
:10877000FFF7ECFB013503460028EED16779791E3F
:1087800017D02246013399421268FBD1D2F80080FB
:108790005FB12668002501E0344636682146013580
:1087A0004046FFF7FBFBAF42F6D800242046BDE869
:1087B000F08120682146FFF7F1FBF6E70430012144
:1087C000FFF76CBB2DE9F041012104460430FFF7AF
:1087D00073FB10F0FF0301D0BDE8F0816779791ECB
:1087E00016D02246013399421268FBD1D2F800809C
:1087F000002FF1D02668002501E034463668214676
:1088000001354046FFF7CAFBAF42F6D8BDE8F0811C
:1088100020682146BDE8F041FFF7C0BB2DE9F843D1
:108820000546C6884079144606FB00F2043A04EB7C
:10883000030C1F1D624538BFD41ABE428846B7FBE1
:10884000F6F106FB117002D801392D68FCD1371AF8
:10885000A74228BF27469CB14FF000090430E41B13
:1088600028443A4608EB090103F032FBA642B9441A
:108870002D6837464FF0000028BF2746002CEDD169
:10888000BDE8F8832DE9F8430546C68840791446CB
:1088900006FB00F2043A04EB030C1F1D624538BFCF
:1088A000D41ABE428846B7FBF6F106FB117002D817
:1088B00001392D68FCD1371AA74228BF27469CB141
:1088C0004FF0000904302918E41B3A4608EB090070
:1088D00003F0FEFAA642B9442D6837464FF0000077
:1088E00028BF2746002CEDD1BDE8F88341DF704753
:1088F000064A074B10B5002414701C60BFF35F8F4D
:108900000449054800F042F8204610BDB02A002076
:10891000B42A0020E4D00200A82A002000B583B0C9
:1089200000230DF107008DF80730FFF73FF8F1EE57
:10893000103A23F09F03E1EE103ABFF35F8F0B4B29
:108940004022C3F884219DF80700FFF755F803F093
:1089500001F928B920BF40BF20BF03B05DF804FB78
:10896000FFF7C4FF03B05DF804FB00BF00E100E0C7
:108970008268002393608268136182685361826811
:10898000D3608268536082681360704701600B682F
:1089900043604A68934204BF00234360704700BFAE
:1089A000436843B1026891680B4443605268934244
:1089B00004BF00234360704770B5446806462068D2
:1089C0000D4618B908E02468206828B1B368294624
:1089D00098470028F7D120682860256070BD00BF47
:1089E0004368186808B102681A60704743681868DD
:1089F000704700BF4368186818B908E0034600686C
:108A000028B18142FAD10A681A6001207047704784
:108A1000114910B4A1F5947205E052F83330984230
:108A200038BF21460CD28C1AE30F03EBE4035B1032
:108A3000914202EBC304F0D808485DF8044B70473C
:108A400002D904F10802EEE76068044B5DF8044BBC
:108A5000002808BF1846704724D60200E8D4020058
:108A6000BFF34F8F0549064BCA6802F4E062134317
:108A7000CB60BFF34F8F00BFFDE700BF00ED00E00C
:108A80000400FA0510B54FF080414FF080520020ED
:108A9000C1F80C01684BC1F81001C1F83805D2F8D3
:108AA0000414C3F82015D2F80814C3F82415D2F81A
:108AB0000C14C3F82815D2F81014C3F82C15D2F8EA
:108AC0001414C3F83015D2F81814C3F83415D2F8BA
:108AD0001C14C3F84015D2F82014C3F84415D2F87A
:108AE0002414C3F84815D2F82814C3F84C15D2F84A
:108AF0002C14C3F85015D2F83014C3F85415D2F81A
:108B00003414C3F86015D2F83814C3F86415D2F8D9
:108B10003C04C3F86805D2F840044849C3F86C0522
:108B20000968D2F84424C3F87025082926D04FF0EC
:108B30008043D3F80024D10744BF6FF00102C3F88B
:108B400000243F4AD2F8883043F47003C2F88830DA
:108B5000BFF34F8FBFF36F8F4FF01023D3F80C226A
:108B6000D2074BD4D3F80022002A21DBD3F80432F9
:108B7000002B1DDB334B344A1A6010BD334B1B688E
:108B8000002BD4D13248334A334C04603349344B40
:108B9000FB20C2F818050A681B68324822F00F0251
:108BA00003F00F0313434FF400720B600260BEE743
:108BB0002D4A0123C2F80435D2F80034002BFBD033
:108BC0004FF010231221284AC3F80012D2F80034C3
:108BD000002BFBD04FF010231221234AC3F80412BC
:108BE000D2F80034002BFBD000231F49C2F8043513
:108BF000D1F80034002BFBD0FFF732FF1A4B0122D3
:108C0000C3F80425D3F80024002AFBD04FF010212C
:108C1000154AD1F80C3223F00103C1F80C32D2F816
:108C20000034002BFBD000230F49C2F80435D1F8E3
:108C30000034002BFBD0DFE700C000403001001003
:108C400000ED00E0242300200090D0033401001048
:108C50008C56004000F0004048810300E40E0040C4
:108C6000580200104096024000E00140064B1A5C9A
:108C70001F2A86BF054902F01F024FF0A0410123C1
:108C80009340C1F80835704724D602000003005015
:108C9000064B1A5C1F2A86BF054902F01F024FF0DF
:108CA000A04101239340C1F80C35704724D602003F
:108CB00000030050C10707D4830742BF4FF0A04311
:108CC0000C22C3F8342770474FF0A043032210B49E
:108CD0004FF48041C3F81C278024C3F8382782074B
:108CE000C3F80C45C3F80C1504D54FF0A0430C2273
:108CF000C3F834275DF8044B704700BF10B568B95E
:108D00000E4CA368012262703BB1D3E9002300201E
:108D1000A2609847A368002BF7D110BD0128FCD1B1
:108D2000064C2369A070002BF7D0D3E90023012063
:108D3000226198472369002BF7D110BDB82A002083
:108D400070B910B5074CA368012262703BB1D3E93A
:108D500000230020A2609847A368002BF7D110BD24
:108D6000704700BFB82A002030B5012883B004D076
:108D700003281DD0B0B103B030BD224C00230DF14B
:108D800007008DF80730FEF711FE23784BB3E36838
:108D90009DF8070001330122E360A270FEF72CFE6C
:108DA00003B030BD184B0122C3F8802003B030BDA2
:108DB000144C00F0B1F800230DF107008DF80730D6
:108DC000FEF7F4FDE368013BE360E5682DB19DF833
:108DD0000700FEF711FE03B030BD00F0AFF8A5703C
:108DE000F5E70A486360A3602361E36000F088F858
:108DF00002F0B0FE10B101232370C8E700F08CF838
:108E0000F9E700BFB82A002000E100E0FD8C020075
:108E100030B585B0047845688DF80040D0E902404F
:108E2000064A074B039053F82130019552F8211060
:108E30008DF808406846984705B030BDCC2A002020
:108E4000D42A002030B585B0047845688DF80040FC
:108E5000D0E90240064A074B039053F821300195B0
:108E600052F821108DF808406846984705B030BD8B
:108E7000CC2A0020D42A00202DE9F047DFF87480A6
:108E800090F800E04B7F08F80E300D460746164676
:108E90000FCD88B06C460FC495E80F003D78DFF821
:108EA0005890DFF858C018F8055049F82E6084E84B
:108EB0000F004CF82E00CDF810E05DB1002E0B4AEB
:108EC000694607F1040008BF324601F0F3F808B024
:108ED000BDE8F087002E064A694607F10C0008BF7E
:108EE000324600F059FE08B0BDE8F087118E02004E
:108EF000458E0200202D0020D42A0020CC2A0020FC
:108F0000044A137923B901211060918018467047F3
:108F100085207047DC2A0020074B1A68D20704D44A
:108F2000C021012283F800131A604FF08043012210
:108F3000C3F81825704700BF00E100E0044B012290
:108F40001A604FF08042D2F81834DB03FBD470472C
:108F50000C00004010B5174B1A6882B062B10021B6
:108F6000154A19601B68507900934FF08041012326
:108F7000009CC1F8083398B1104B1A68BAB10022AE
:108F80001A601B6801934FF0804202210A4B01983E
:108F9000C2F808131B68012002B0BDE81040184752
:108FA000116853718847054B1A68002AE7D102B04F
:108FB00010BD00BF00010040DC2A00200401004079
:108FC00030B5224C94F86A5083B0002D3AD14FF05E
:108FD000FF304FF0FF314FF0FF33C4E90001C4E927
:108FE0000C01C4E90E01C4E91001C4E91201C4E98D
:108FF0001401C4E916010622294604F16400C4E9FB
:109000000233C4E90433C4E90633C4E90833C4E9CC
:109010000A33236602F06AFF0D4A0E4B0E491D60AB
:10902000C02082F80603402010601B68019301985D
:109030004FF000430122284684F86A20C1F8043327
:1090400003B030BD082003B030BD00BFE82A0020C7
:1090500000E100E07C61004000600040034B93F8B9
:109060006A00003818BF0120704700BFE82A0020BE
:10907000F0B4754B1D1895F93040002C61DA8C78EE
:10908000A707C4F3400C53D41C6A013400F0D58008
:109090005C6A013400F0CA800C260A2453F824507C
:1090A000013552D0651CB5423FD253F825700137C7
:1090B00000F0B480A51CB54237D253F825700137B3
:1090C00000F0AC80E71CB7422FD253F8275001358F
:1090D0003AD0271DB74228D253F82750013533D054
:1090E000671DB74221D253F8275001352CD0A71D58
:1090F000B7421AD253F82750013525D0E71DB742A1
:1091000013D253F8275001351ED004F10807B74297
:109110000BD253F82750013516D00934B44204D28B
:10912000DC6A013408BF0B240FD00420F0BC704768
:109130001C68013474D05C6801346DD008260224A8
:10914000ACE70820F0BC70473C461E1865B243F8F7
:10915000242086F83050BCF1000F02D11C4484F862
:1091600058008A7854071AD4D60744D41F284C785C
:1091700087BF364E00F01F0202464FF0A04602F5B0
:10918000E072A40046F82240314EC40800F0070CFB
:10919000375D012202FA0CF23A4332558A7812F016
:1091A00002021CD0AB0003F1804303F5C0430978F1
:1091B000D3F8104524F44F3424F44074C3F8104518
:1091C00002020904D3F8100501F4403102F47C5284
:1091D0000A430243C3F810250020F0BC7047083D45
:1091E0002B44087893F8601041EA801183F86010EE
:1091F0001046F0BC70471F2887BF144A00F01F04B8
:1092000004464FF0A04202EB8402D2F8004724F05B
:109210000204C2F80047B7E7012496E72C4694E71A
:10922000002485F830401A6025469AE7092685F81B
:1092300030605A623446354690E7082685F830603B
:109240001A623446354689E7E82A002000030050B8
:109250004C2B002070B4324C251883B095F9303077
:10926000072B22DD234493F858309B09032B46D06B
:10927000012B0CBF4FF400324FF440321F288ABF3D
:10928000284B4FF0A04300F01F0003EB8000D0F804
:10929000003723F44033C0F80037D0F800371A43C2
:1092A000C0F8002703B070BC7047DAB2072AF9D8BB
:1092B000980000F1804000F5C04003F140029200A8
:1092C000D0F8106592B202F1804202F5C04246F039
:1092D0000106C0F810650020106012680192019A22
:1092E0000029DFD095F9302054F82220002AD9D067
:1092F0000D49012202FA03F3C1F80433D2E71F2813
:109300008ABF084A4FF0A04200F01F03D2F8102590
:1093100098BF0346DA4002F0010202321204ADE7C0
:10932000E82A00200003005000600040194B03446D
:1093300093F93030072B13DD1F288ABF164B4FF0EF
:10934000A04300F01F0003EB8000D0F8003723F4A7
:109350004033C0F80037D0F80037C0F80037704706
:10936000DAB2072A14D810B49A0002F1804202F54A
:10937000C0420A4CD2F81005012120F0010001FA88
:1093800003F3C2F81005C4F808335DF8044B7047C6
:10939000704700BFE82A0020000300500060004032
:1093A0001F288ABF054B4FF0A04300F01F00D3F8E1
:1093B000103523FA00F000F0010070470003005060
:1093C0002DE9F047002388B0CDE90233C94A11687E
:1093D000012900F04B821E46C74B1A68012A00F093
:1093E0003782C64B1A68012A00F02482C44B1A68DF
:1093F000012A00F01182C34B1A68012A00F0FE8195
:10940000C14B1A68012A00F0EB81C04B1A68012A8F
:1094100000F0D881BE4B1A68012A08D0BD4B1A68EB
:10942000012A00F02F8216BB08B0BDE8F087BA4AC7
:10943000D2F804231706F1D500221A6019680091AA
:10944000196E0098012903F1600346F080060ED1E1
:109450001A601B6801934FF0A042019BD2F81025BF
:10946000AE4B0292D3F81035039346F00046AC4F52
:1094700000240125A30003F180432E4203F5C043DD
:109480004FEA45050BD0D3F8100557F82420D3F840
:109490001015C0F30520C1F3014102B1904701341A
:1094A000082CE7D1002EBFDA9D4C9C4F4FF0FF30C7
:1094B0004FF0FF31CDE9060194F960000DF110087D
:1094C0000023451CC8F8043004934FF0010600F057
:1094D000F780C0F3C20908AB03EB090E00F00703E5
:1094E0001EF8082C06FA03F312EA03055FFA80FC63
:1094F00000F03F0021D022184FEA9C1192F9302051
:1095000054F82220002A00F03781032900F0368128
:109510001F2800F2EB8005464FF0A04C0CEB850CA9
:109520001EF8185CDCF800E71D40CEF3014E40F059
:10953000D180BEF1030F00F0B78194F96100411CA6
:1095400033D0C0F3C20E08AB03EB0E0C00F00703E0
:109550001CF8081C06FA03F31942C2B200F03F00DF
:1095600023D004EB0009910999F9309054F829901F
:10957000B9F1000F00F01281032900F012811F28B9
:1095800000F2F68086464FF0A04202EB8E021CF8F5
:1095900018ECD2F800C71EEA030FCCF3014C40F0E0
:1095A000DA80BCF1030F00F0918194F96200421C53
:1095B00033D0C0F3C20E08AB03EB0E0C00F0070370
:1095C0001CF8081C06FA03F31942C2B200F03F006F
:1095D00023D004EB0009910999F9309054F82990AF
:1095E000B9F1000F00F0D080032900F0D0801F28CF
:1095F00000F2A58086464FF0A04202EB8E021CF8D6
:1096000018ECD2F800C71EEA030FCCF3014C40F06F
:109610008980BCF1030F00F06D8194F96300431C55
:1096200033D0C0F3C20E08AB03EB0E0C00F00703FF
:109630001CF8081C06FA03F31942C2B200F03F00FE
:1096400023D004EB0009910999F9309054F829903E
:10965000B9F1000F00F0AC80032900F0AC801F28A6
:109660008BBFBE464FF0A04E02F01F0202460EEB2B
:1096700082021CF818ECD2F800C71EEA030FCCF3E4
:10968000014C60D1BCF1030F1CD0002D3FF4CCAED7
:109690004FF0A042029BD2F81015D7F810058B426C
:1096A00003D1039B83423FF4BFAEDDE90423CDE940
:1096B000021094F96000451CCDE906237FF409AF40
:1096C00000253AE7032900F02981B9F1000FDCD029
:1096D000C847DAE7BEF1020FF2D1032900F0398161
:1096E0000025002A3FF429AF904726E70CF01F051C
:1096F000BC4613E70061004004610040086100407F
:109700000C6100401061004014610040186100408D
:109710001C6100407C61004000600040000300507C
:10972000E82A0020BCF1020F7FF477AF032900F094
:109730000D81B9F1000F3FF470AFC8476DE702F03B
:109740001F0E3A4659E7BCF1020F9ED10329BCD146
:109750004FF4403CE4E0BCF1020F7FF426AF032954
:1097600000F0F180B9F1000F3FF41FAFC8471CE7CC
:1097700002F01F0E3A4608E70329A1D118F8095054
:109780001D4308F80950C3E603297FF446AF18F8D3
:109790000EA04AEA030A08F80EA028E703297FF47E
:1097A00004AF18F80EA04AEA030A08F80EA0E6E68D
:1097B00003297FF46AAF18F80EA04AEA030A08F8F2
:1097C0000EA04CE7644AD2F8042352067FF522AE7D
:1097D00000221A601B680093009B46F0400619E6C1
:1097E0005D4AD2F8042391067FF50FAE00221A607D
:1097F0001B680093009B46F0200606E6564AD2F806
:109800000423D0067FF5FCAD00221A601B6800938C
:10981000009B46F01006F3E54F4AD2F804231407E4
:109820007FF5E9AD00221A601B680093009B46F0AB
:109830000806E0E5484AD2F8042355077FF5D6AD7F
:1098400000221A601B680093009B46F00406CDE5D9
:10985000414AD2F8042397077FF5C3AD00221A606E
:109860001B680093009B46F00206BAE53A49D1F81E
:10987000046316F001063FF4AFAD13601368009364
:10988000009BA9E500221A601B6801934FF0A042DB
:10989000019BD2F81025314B0292D3F81035039377
:1098A000002E3FF401AEE0E503297FF41AAF4FF438
:1098B0000035DCF8003723F44033CCF80037DCF80F
:1098C00000372B43CCF8003701250AE703297FF442
:1098D00049AF4FF4003CD2F8003723F44033C2F8CC
:1098E0000037D2F8003701354CEA0303EDB2C2F875
:1098F000003737E703297FF41CAF4FF4003CD2F860
:10990000003723F44033C2F80037D2F8003701356E
:109910004CEA0303EDB2C2F800370AE74FF4003C0B
:10992000D2F8003723F44033C2F80037D2F80037BA
:10993000013543EA0C03EDB2C2F80037B9F1000F6C
:109940007FF4C6AEA4E64FF4403CC4E74FF4403C7D
:10995000D5E74FF44035ACE700600040000300500D
:10996000014B1B68184700BF542B0020114B984235
:109970001DD130B583B000230DF107008DF80730FD
:109980000D46FEF713F80C4B1C794CB99DF80700F7
:109990001D6001221A71FEF72FF8204603B030BD7A
:1099A0009DF80700FEF728F8112003B030BD002015
:1099B000704700BF00200040542B0020034B98420A
:1099C00003D1034B00221A601A7170470020004037
:1099D000542B002030B56E4AD2F8043399058BB071
:1099E00068D5D2F82431002B64D00023C2F824318A
:1099F000D2F8243101934FF40171664B0198C2F8FB
:109A0000081393F8291009B9012151606049022215
:109A10008DF81820D1F88024C1F880249869D9687D
:109A2000099200240025CDE90710C3E90645D3E9D2
:109A3000001206A89047564AD2F81C31C3B1554BC4
:109A40005869196A88426AD993F8281001F0FF0012
:109A5000002964D1C2F81C01D2F81C1103910399AA
:109A60009C68186A196A205C01311962C2F81C05E9
:109A7000474AD2F84431DBB10021464BC2F84411C9
:109A8000D2F8440193F829100090009809B10121FF
:109A900011609A6962B1586AD96800229A610122FC
:109AA000CDE907108DF8182006A8D3E900129047D9
:109AB0000BB030BD364AD2F804335B07BBD5D2F8C1
:109AC0000831002BB7D0334B996900293ED00021D3
:109AD000C2F80811D2F8081104910499D868596A9B
:109AE000D2F8182542545A6A996901325A625A6A60
:109AF0008A42A0D1DA69002A31D0DD685C6A18692F
:109B00009A6101210022D860DA615A628DF818103A
:109B1000CDE90754D3E9001206A890478BE71C4A09
:109B20000021C2F81C11D2F81C210292029A5A6933
:109B3000002A9DD058699A688DF8181008905961CC
:109B4000079206A8D3E90012904791E7C2F80811DE
:109B5000D2F8080105900598D2F81825C7E793F8C0
:109B6000292012B90A4A01215160094A4FF40171B2
:109B7000C2F80813596ADA68089100240120079294
:109B80008DF81800D3E900129C6106A8904752E7AF
:109B900000200040602B00202DE9F041DFF8DC813F
:109BA00006792C2303FB068382B093F82A30002B1E
:109BB00040F09A8005460C4600686B491746FFF74F
:109BC000D5FE002840F08C802368591C19D01F2B2B
:109BD0004FF001028ABF65494FF0A04103F01F0317
:109BE00002FA03F3C1F8083523681F2B86BF03F080
:109BF0001F035E4A4FF0A04203F5E073032142F8D1
:109C0000231063685A1C0BD01F2B86BF03F01F0361
:109C1000564A4FF0A04203F5E073002142F82310AA
:109C20002B68A269C3F82425217D637D2A680B4334
:109C3000C2F86C35D4E900122B68C3F81425C3F8B8
:109C40000C15237D012B5BD02C2303FB06F308EBC3
:109C500003025760226948F8032077B32A68237FFC
:109C6000434C0021C2F81C11D2F81C2100922A6832
:109C7000009FC2F84411D2F844112A680191019959
:109C8000C2F804432A6842F3073100294FEA12322E
:109C90002EDB01F1604101F561415B01DBB281F82E
:109CA00000332B68334C43F307325209C3F30433B8
:109CB000012101FA03F344F822302C23296803FB25
:109CC0000686042400230122C1F80045C6E90633B4
:109CD00086F82A2086F82930736102B0BDE8F08149
:109CE000112002B0BDE8F081082002B0BDE8F0818B
:109CF000214902F00F025B011144DBB20B76D0E781
:109D0000A368591C0BD01F2B86BF03F01F031749F4
:109D10004FF0A04103F5E073002241F82320E368EF
:109D20005A1C1AD01F2B8ABF10494FF0A04103F0D4
:109D30001F03012202FA03F3C1F80835E3681F2B61
:109D400088BF03F01F0303F5E0738CBF07494FF092
:109D5000A041032241F82320E3682A68A168C2F8E1
:109D60000835C2F810156FE7D599020000030050BE
:109D70008000020000E100E0FCEC00E0602B00202D
:109D8000F8B53A4F047902682C2303FB04730021D1
:109D90005B68C2F8001583B10368354AC3F808232D
:109DA0000268344D42F307335B092033C2F30432B7
:109DB000012101FA02F245F8232003684FF0FF3C2D
:109DC000D3F80C65D3F81455D3F80825D3F810153B
:109DD000C3F814C5C3F80CC503686645C3F808C5C5
:109DE000C3F810C50CD01F2E86BF06F01F06224BED
:109DF0004FF0A04306F5E0764FF0020C43F826C082
:109E00006E1C0BD01F2D86BF05F01F051A4B4FF09F
:109E1000A04305F5E075022643F825604D1C0BD0E4
:109E20001F2986BF01F01F01134B4FF0A04301F51E
:109E3000E071022543F82150531C0BD01F2A86BF26
:109E400002F01F020C4B4FF0A04302F5E07202211A
:109E500043F822100068FFF7B1FD2C2303FB0474C4
:109E6000002384F82A306360F8BD00BF602B002017
:109E70008402020000E100E0000300502DE9F041FF
:109E8000314E05792C2303FB05630446586984B0E1
:109E900000284CD15A619960186283F82800226822
:109EA000C2F81C01D2F81C11226802910121029F04
:109EB00091602268D3F808C0C2F81C01D2F81C11C6
:109EC000019101991F6A196A1CF807700131196222
:109ED000C2F81C755A6812B104B0BDE8F0815F6920
:109EE0001A6A216897421BD9864602E093F8282017
:109EF0000ABBD1F81C21002AF8D0C1F81CE1D1F826
:109F00001C210392039AD3F820801A6A1CF8088057
:109F100001321A62C1F81C851A6A9742E9D8216891
:109F2000D1F81C31002BFBD00123CB6004E01120C1
:109F300004B0BDE8F0810F202C2303FB056500234E
:109F40006B6104B0BDE8F081602B002030B5574B49
:109F5000D3F824218BB0002A75D00022C3F8242125
:109F6000D3F82421049202228DF81820049AD3F801
:109F700080144F4AC3F880140991D3F83C15D36874
:109F80000891002400250793C2E90645116853682B
:109F900006A89847454BD3F8442152B10021444AC2
:109FA000C3F84411D3F84401916903900398002940
:109FB00038D13E4BD3F820215AB10021C3F82011EB
:109FC000D3F8202102920120394A029CD8605069BE
:109FD000D8B9364BD3F85821AAB10021C3F858118B
:109FE000D3F85801324A01900198506958B1D3F81A
:109FF0004C05936808908DF818105161079306A8D6
:10A00000D2E9001398470BB030BDD3F84C059368E4
:10A0100008908DF818105161079306A8D2E9001333
:10A020009847D6E7D3F83C35D1680893002400253B
:10A03000012307918DF81830C2E90645D2E90013D3
:10A0400006A89847B5E7D3F810110029A2D0C3F8A5
:10A050001021D3F810111648059105998469D3F899
:10A060003C15A14296D1C469A4B1D3F800528461D1
:10A0700025F02005C3F80052D0E90343C261012254
:10A080000891C3600168436807948DF8182006A8FA
:10A0900098477FE7C26884610123CDE907218DF8E5
:10A0A0001830D0E9001306A8984773E70020004055
:10A0B000902B00202DE9F0430779804E07EBC70372
:10A0C00006EB830387B093F82030002B40F0B58077
:10A0D00004460D4600687A499046FFF747FC002881
:10A0E00040F0A7802B68591C4FEAC70919D01F2BD5
:10A0F0004FF001028ABF73494FF0A04103F01F03E4
:10A1000002FA03F3C1F808352B681F2B86BF03F052
:10A110001F036C4A4FF0A04203F5E073032142F89D
:10A1200023106B685A1C0BD01F2B86BF03F01F0334
:10A13000644A4FF0A04203F5E073002142F8231077
:10A140002368AA69C3F82425297D6A7D23680A4308
:10A15000C3F86C25D5E900312268C2F80C35C2F885
:10A1600014152B7D012B74D009EB070206EB82033B
:10A17000C3F804802B6946F82230B8F1000F47D0AD
:10A1800021682B7F504D0022C1F81021D1F8101109
:10A1900001912168DDF804C0C1F82021D1F8201117
:10A1A00002912168DDF808C0C1F82421D1F82411FA
:10A1B00003912168DDF80CC0C1F84421D1F84411A5
:10A1C00004912168DDF810C0C1F85821D1F8581168
:10A1D000226805910599C2F80453226842F30731B9
:10A1E00000294FEA12322CDB01F1604101F5614197
:10A1F0005B01DBB281F800332368344D43F307324F
:10A200005209C3F30433012101FA03F345F8223064
:10A210004F44226806EB8706002301240821C2F878
:10A220000015C6E9063386F82040736107B0BDE823
:10A23000F083112007B0BDE8F083082007B0BDE827
:10A24000F083234902F00F025B011144DBB20B766D
:10A25000D2E7AB68591C0BD01F2B86BF03F01F033E
:10A2600018494FF0A04103F5E073002241F8232084
:10A27000EB685A1C1AD01F2B8ABF12494FF0A0411D
:10A2800003F01F03012202FA03F3C1F80835EB685B
:10A290001F2B88BF03F01F0303F5E0738CBF094930
:10A2A0004FF0A041032241F82320EB682268A968FF
:10A2B000C2F80835C2F8101556E700BF902B0020F1
:10A2C0004D9F0200000300501003420000E100E037
:10A2D000FCEC00E0F0B50579484C05EBC50304EB58
:10A2E000830383B05B68EE0083B10368444AC3F81C
:10A2F00008230268434F42F307335B092033C2F35C
:10A300000432012101FA02F247F823200268D2F850
:10A31000003223F02003C2F80032026801235360A8
:10A3200002680021C2F85811D2F858110268019150
:10A330000199D3600268D2F85831002BFBD000237A
:10A34000C2F8003503684FF0FF3ED3F80CC5D3F8D0
:10A350001475D3F80825D3F81015C3F80CE5C3F825
:10A3600014E50368F445C3F808E5C3F810E50DD01B
:10A37000BCF11F0F86BF0CF01F0C234B4FF0A04306
:10A380000CF5E07C4FF0020E43F82CE07B1C0CD067
:10A390001F2F86BF07F01F071B4B4FF0A04307F589
:10A3A000E0774FF0020C43F827C04F1C0BD01F2959
:10A3B00086BF01F01F01144B4FF0A04301F5E0717F
:10A3C000022743F82170531C0BD01F2A86BF02F0CE
:10A3D0001F020D4B4FF0A04302F5E072022143F83B
:10A3E00022100068FFF7EAFA354404EB85040023E5
:10A3F00084F82030636003B0F0BD00BF902B0020D4
:10A400001003420000E100E000030050F0B401F04E
:10A410006044B4F1005F82B02CD10579274E05EB82
:10A42000C50406EB840403466069EF0000283ED1B2
:10A430006261A1601A68C2F82001D2F820C11A68CE
:10A44000CDF804C0DDF804C0C2F85801D2F8582194
:10A4500000921A68DDF800C0D4F814C0C2F84415A0
:10A46000C2F848C51A6801219160626832B102B031
:10A47000F0BC7047102002B0F0BC70471A6800E0D2
:10A48000C8B9D2F82011D2F858010029F8D090B9F3
:10A490000121D1601B68D3F85821002AFBD07B1919
:10A4A00006EB830300225A6102B0F0BC7047112012
:10A4B00002B0F0BC70470F20F1E700BF902B0020E6
:10A4C00072DF704773DF704776DF70477ADF70475F
:10A4D0007CDF70477FDF70478FDF7047B1DF7047E9
:10A4E000FCF7D8BF08B5A0F109030A460E2B1AD80D
:10A4F000DFE803F0080819191919191919190808BA
:10A50000080808000A4B0B49188801F075FA30F06A
:10A51000080207D043F20202904203D043F2014204
:10A52000904200D108BDBDE80840FCF7B3BF00BFB2
:10A530005A230020082C002008B5037803B108BD79
:10A54000054B3B211888FFF7BFFF0028F7D0BDE877
:10A550000840FCF79FBF00BF5A23002008B572B126
:10A560000020FEF783FB0948094B0A49C01AC008BE
:10A570000004BDE8084040F00300FCF779B910463C
:10A58000FEF786FB0148024B0349EFE7F0DC0200CF
:10A59000C8DC020054D6020068D60200FCF77ABF7D
:10A5A00010B50388212B82B0044630D80F2B2CD94C
:10A5B000103B112B29D8DFE803F046092862282830
:10A5C00028282828282828282828283C3A4B3B488F
:10A5D0003B49C01AC008000440F00300FCF748F9EA
:10A5E0000020FEF755FB374B4FF6FF721A80FCF741
:10A5F00023FF00285DD1344B01211878FFF762FF5B
:10A60000002853D10020FEF731FB02B010BD522BC1
:10A610003FD0562B09D1A0881321FFF755FF002802
:10A62000F3D0FCF737FF02B010BD3B2BF3D002B0E4
:10A6300010BD00238088ADF8043001A9FFF74CFF5E
:10A640000028E2D0EDE71C4B1C482049C01AC00886
:10A65000000440F00300FCF70BF90020FEF706FBB6
:10A660000020FEF715FB174BA1881948198001F04F
:10A67000B7F8C0B9FCF7CAFE0028C6D0D1E7114A26
:10A680000023108885211A46FFF724FF0028BCD03C
:10A69000C7E70C4A0023108819461A46FFF71EFF29
:10A6A0000028B2D0BDE7FCF7F5FEE3E7FCF7F2FEC9
:10A6B000A8E7FCF7EFFE9EE7C8DC0200F0DC020032
:10A6C00088D602005A230020582300207CD602009E
:10A6D000202C002000B54FF48041A7B00020FBF7EC
:10A6E00033FF002840F0E980FBF71EFF0120FEF752
:10A6F000E1FAFDF7AFF8002840F01081042140F2A4
:10A7000033328848FCF722FE0446FEF781F9014601
:10A71000854801F0F3FB002C40F0FC80FEF7E8F8E0
:10A72000002840F0F48001F089F9002840F0EC8026
:10A73000002317A90120179301F05CFA002840F0CC
:10A74000E08017A801F014FB002840F0D780112307
:10A7500076488DF8203001F0E9FB744982B208A8F0
:10A76000FFF7B6FE002840F0C6800822002117A897
:10A7700001F0BCFB6E4B179317A84FF0C8731893EA
:10A78000FFF7A4FE002840F0B3806A48002100F0E3
:10A7900019FF002840F0A980674B684817930022F2
:10A7A00017A9089201F00AF8002840F09B80644B3A
:10A7B0006448089308A901F0B7F8002840F08F809A
:10A7C000604B614C9B7C8DF806303C2241F2235358
:10A7D000002108A8ADF8043001F088FB022040F207
:10A7E00001633C2200218DF8200017A8ADF822302B
:10A7F00001F07CFB2246012501AB52F8041BADF8A9
:10A800006C5008A81C9300F02FF9002864D1A168AF
:10A810004E4A17A800F028F900285AD11822002122
:10A8200002A801F063FB012000234FF4807540244F
:10A830008DF8080044494648ADF8143002AA039345
:10A84000ADF81C500494FFF73BFE00283ED11C22BB
:10A85000002117A801F04AFB00233E4A1793ADF8E8
:10A860006A308DF86C303C4B4FF4A0254FF4A03487
:10A87000032117A8CDE91854CDE91C238DF86810E1
:10A8800000F026FCF8B9354B35483649C01AC008E7
:10A89000000440F00300FBF7EBFF2D4B012118787B
:10A8A000FFF710FE60B90020FEF7E0F9FBF7A6FE07
:10A8B0000028FBD1FEF732F8F8E7FCF7EBFD13E7D1
:10A8C000FCF7E8FDEFE7FCF7E5FDDCE7FCF7E2FD70
:10A8D000BDE7FCF7DFFDA1E7FCF7DCFD97E7FCF740
:10A8E000D9FD6DE7FCF7D6FD61E7FCF7D3FD53E733
:10A8F000FCF7D0FD49E7FCF7CDFD36E7FCF7CAFDD4
:10A9000025E7FCF7C7FD1CE7FCF7C4FD10E7FCF7E3
:10A91000C1FD08E72046FCF7BDFDFFE6FCF7BAFDE8
:10A92000ECE600BF2823002098D602009CD6020047
:10A930005000A000F42B0020E1A40200202C0020F5
:10A940005DA50200082C002048230020542300208D
:10A950005823002039A502009DA50200C8DC020092
:10A96000F0DC0200ACD602006DDF704779DF704783
:10A970007DDF704764DF70472DE9F04F87B00746F1
:10A98000119D00882C880394BDF84840DDF840A054
:10A99000CDE90142002858D04FF0000988461E46F4
:10A9A000CB4604E03A880BF1010B93452CDAD8F83A
:10A9B000002052F82B00059000220DF1130105A88C
:10A9C000FFF7D8FF044658BB9DF81320B242E9D1E7
:10A9D000B9F1000F28D02A88019B9119994239DCDE
:10A9E00052440DF1130105A84FF00109FFF7C2FF12
:10A9F000002834D129889DF813200A442A803A88F7
:10AA00000BF1010B9345D2DBB9F1000F1DD02B8860
:10AA1000039A013B9B1A9BB2FF2B1BD80AF802300A
:10AA2000204607B0BDE8F08F2A88019B511C3244B4
:10AA300002329A4289B20DDC029B29800AF8013069
:10AA40002A88013292B22A80CAE70024204607B041
:10AA5000BDE8F08F0C24204607B0BDE8F08F044617
:10AA6000204607B0BDE8F08F2DE9F0470023178896
:10AA7000138090F82D3088B0144605460E46002B02
:10AA800040F00081AA78002A40F0F580E978A1B171
:10AA9000DA1CBA4200F2F2800222F2542388013317
:10AAA0009BB201222380F254238813449BB223805B
:10AAB000F154238813449BB223806A68AAB1D91C3D
:10AAC000B94200F2DB80022192F90020F154238880
:10AAD00001339BB20A212380F154238801339BB2B6
:10AAE0002380F2542388013323802B89002B40F0EC
:10AAF000F3802B8A002B40F02B812B8B002B40F016
:10AB000046812B6A002B44D02088821DBA4200F275
:10AB1000B5801A88052A40F299816FF4486802EBE3
:10AB2000080189B24FF27D3C614540F28F8159881E
:10AB3000052940F28B816FF4486E8E441FFA8EFE19
:10AB4000E64540F283814FF6FF7C624504D06145C3
:10AB500002D08A4200F27A810522325422880132E0
:10AB600092B212212280B1542288013292B2228004
:10AB70001988B1543244090A51702288023292B2C3
:10AB800022805B88B35432441B0A537023880233FB
:10AB900023806B6A002B2FD09988B4F800C0881CE2
:10ABA0000CF102020244BA4268D8FE2866D803318A
:10ABB00006F80C102288013292B2FF212280B15493
:10ABC0002288013292B222801988B1543244090A93
:10ABD00051702088023080B220809A8862B19968D2
:10ABE0000593002900F03281304401F071F9059B92
:10ABF0009A8823881344238095F82C30002B40F04A
:10AC0000E380287800283AD02B88012B00F01E81A1
:10AC100023889A1CBA4231D8012804D169780231BC
:10AC200019448F422AD3023FFF1ABFB2B01806A9B7
:10AC3000ADF81870FFF79CFE08BB2B78022B00F0D4
:10AC40000D816978BDF818209142C0F003819742C8
:10AC5000C0F0008117460922FE2F0FD82388791CE7
:10AC6000F154238801339BB22380F25423880133AB
:10AC70001F44278003E00433BB424CD90C2008B0AA
:10AC8000BDE8F087082FF9D906A8FFF76DFE002868
:10AC9000F5D123880822F254238801339BB21B226A
:10ACA0002380F2542088013080B220800622304474
:10ACB0000DF1190101F00CF923889DF818200633D5
:10ACC0009BB212F0FE0218BF01222380F2542388A7
:10ACD00001339BB22380D5E605F10808022305F174
:10ACE0000C01CDE90147009640461A460591FFF751
:10ACF00043FE0028C3D1CDE901470599009640469F
:10AD000010230622FFF738FE0028B8D12B8A002B2B
:10AD10003FF4F3AE1CE006A8FFF728FE0028AED1F2
:10AD20002388BDF818200321F154238801339BB2F6
:10AD300019212380F154238801339BB2F118238019
:10AD4000F254130A4B70238802339BB223809DE692
:10AD500005F1100805F11401CDE9014700964046C0
:10AD6000022303220591FFF707FE002887D1CDE9D2
:10AD7000014705990096404610230722FFF7FCFD86
:10AD800000287FF47CAF2B8B002B3FF4BAAE05F18B
:10AD9000180805F11C01CDE9014700964046022341
:10ADA00014220591FFF7E8FD00287FF468AFCDE994
:10ADB000014705990096404610231522FFF7DCFD58
:10ADC00000283FF49EAE5AE7A96A00293ED04FF012
:10ADD00000094B464FF0160A2BE02388F0542388D5
:10ADE00001339BB2238006F803A0238801339BB272
:10ADF000238031F82220F2543344120A5A702088FA
:10AE0000023080B22080B8F8042030444AB1D8F82B
:10AE10000810D9B101F05CF8B8F804202388134475
:10AE2000238095F82C205FFA89F39A427FF6E9AEE9
:10AE3000A96A03EB430201EB820809F10109B8F8A2
:10AE40000430D81C0233FE2BC7D917E7072008B0FF
:10AE5000BDE8F087012B08D00822FDE6BDF81830C8
:10AE60009F42F9D31F460922F6E68F42F4D30F46DC
:10AE70000822F1E675DF704776DF70477ADF7047AA
:10AE80007BDF704770B51B4D2B8884B2A34282B024
:10AE900011D1194E297A327B91420ED3337C002294
:10AEA0002A72DBB9736933B10022ADF806408DF820
:10AEB000042001A8984702B070BD184605F10A01A8
:10AEC000FFF7D8FF28B11128F5D0B369002BF1D1D5
:10AED000F1E72B7A01332B7202B070BD3B21204683
:10AEE000FFF7CAFF30F00803DCD0B369002BD9D0DC
:10AEF0009847D7E7482C00202C2C0020F0B502887A
:10AF0000122A83B003463ED015D8102A73D0112AD6
:10AF10000FD16C4C828823889A420AD16068FCF772
:10AF200023FD18B1684B9B6903B198474FF6FF7337
:10AF3000238003B0F0BD502AFBD1634DC188EA895C
:10AF40009142F6D1028A022AF3D15E4C8288268889
:10AF50009642EED1123000F0A9F9002800F09C8052
:10AF6000637A002B40F09F80D5E90113277A60684F
:10AF70003246002F18BF1946FCF7B0FC0028D8D085
:10AF8000AB693BBBD5E74F4C828821889142D0D139
:10AF90004089658985421FD8A58985421CD3E089EF
:10AFA0009D8940F2F313984294BF031AC31AAB422F
:10AFB00012D800F2F310A8420ED3434B5B694FF452
:10AFC00080722281002BB4D00122ADF806108DF8DA
:10AFD000042001A89847ACE73B4D267A6068D5E984
:10AFE0000113002E18BF194600236372FCF776FC8C
:10AFF0000028C5D19DE7C67B012E9AD1314C21880E
:10B000004FF6FF7291423FD1304D8288228003CDAE
:10B01000C4F80A00C4F80E10598A608900258842D5
:10B02000257222D8A08988421FD3E189988A40F2EC
:10B03000F313994294BF4B1ACB1A834215D801F2ED
:10B04000F311814211D3204D6672EB89002B7FF4FE
:10B0500070AF6B69002B3FF46CAF0121ADF8062097
:10B060008DF8041001A8984763E7174DEB8900217C
:10B070006172002B7FF45DAF60686968FCF72EFC9D
:10B0800000283FF456AF7BE70F4B9B69002B3FF442
:10B0900050AF042098474CE76068FCF765FC002837
:10B0A0003FF447AF6CE76B6900222272002B3FF43C
:10B0B00040AF0122ADF806608DF8042001A8984742
:10B0C00037E700BF482C00202C2C00205C2C0020EF
:10B0D00070B3F8B5054606460FCD164F3C460FC473
:10B0E000844695E80700144D3D6084E80700BCF1F4
:10B0F000000F17D06046FFF7C1FE90B9336818689B
:10B10000596803C50D4B0E490E4A18464FF6FF7499
:10B1100040F8041F1C800021FCF7D2FB002818BF58
:10B120000320F8BD2846FFF7ABFE0028EAD0F8BDA3
:10B130000E2070472C2C00205C2C0020482C002076
:10B14000682C002085AE02002DE9F047038887882F
:10B15000103B98B004460A2B1CD8DFE803F03029D6
:10B160001B1B1B1B1B1B1B1E0600037A46483F2B89
:10B170004FEA1314394667D8FCF752FE032C65D00A
:10B1800042483946FCF74CFE022C63D04048394611
:10B19000FCF746FE18B0BDE8F087037A002BF9D122
:10B1A000437A39481B0739466BD5FCF72FFEF1E788
:10B1B00038483946FCF734FE18B0BDE8F087364A07
:10B1C0009368DB43009351686846FCF759FE009B87
:10B1D0000193019B83B300263546294601A8FCF75D
:10B1E00029FE28B118AB03EB4603013623F8285C8F
:10B1F0000135142DF1D10D960DF1340CBCE80F0082
:10B2000002AD0FC5BCE80F000FC59CE8070085E83C
:10B2100007008EB10DF10A08DFF888A008EB46069A
:10B2200038F8029F1D4D284649460435FCF7F8FDC5
:10B23000AA45F8D1B045F3D1132F12D90420FCF759
:10B2400029F918B0BDE8F087FCF7E0FD0F48394652
:10B25000FCF7DCFD0E483946FCF7D8FD18B0BDE818
:10B26000F0870C483946FCF7D1FD0C483946FCF70D
:10B27000CDFDE37B012B8DD009483946FCF7C6FD97
:10B2800088E7FCF7CDFD85E7A02C00209C2C002052
:10B29000982C0020902C0020882C00208C2C002042
:10B2A000942C0020042D0020AADF7047007800F0C5
:10B2B00001007047F0B58B7891B0012B0C460988DE
:10B2C000ADF80C1038BF0123054616466846032228
:10B2D00000218DF80E3000F009FE637C0022013B56
:10B2E0008DF80020042B09D8DFE813F0CF00D3003D
:10B2F000D700DB00050022238DF80030A37C00225C
:10B30000013B8DF80120042B09D8DFE813F0CE00B3
:10B31000D200D600DA00050022238DF80130E77B49
:10B32000237B207C217D9DF8022043EAC70343EA6A
:10B33000001322F01902002903F0190343EA020363
:10B3400014BF0222012262F3420309A81C22002139
:10B350008DF8023000F0CAFD637B13F0300F73D11B
:10B36000627BA37B8DF824200021142204A88DF891
:10B37000253000F0BBFDA368A288CDF814D003A946
:10B380000491ADF81C201BB1E2880893ADF8182099
:10B39000A369002B36D001AF03220021384600F00C
:10B3A000A5FDA2691388ADF82C305388ADF82E3076
:10B3B00051680D97137B0A91013B00218DF8041011
:10B3C000042B2DD8DFE803F095999D8929002223CD
:10B3D0008DF80530977A137AD07A917B9DF8062004
:10B3E00043EAC70343EA001322F01902002903F0DD
:10B3F000190343EA020314BF0222012262F342034B
:10B400008DF80630E36903B10C93334604AA09A909
:10B410002846FFF749FF11B0F0BD22238DF8043014
:10B42000537B0021013B8DF80510042BD2D801A1DC
:10B4300051F823F0E3B40200EBB40200CBB40200F5
:10B44000D3B40200CFB3020002AF0322384600217A
:10B4500000F04CFDE37C0022013B8DF80920042B19
:10B4600007D8DFE803F0525E5A56030022238DF816
:10B4700009309DF80A300E97012262F3420311222F
:10B480008DF80A308DF808206AE711238DF8003016
:10B4900034E721238DF8003030E731238DF8003078
:10B4A0002CE712238DF8003028E711238DF80130A6
:10B4B00035E721238DF8013031E731238DF8013054
:10B4C0002DE712238DF8013029E731238DF805305F
:10B4D00080E712238DF805307CE712238DF80430C5
:10B4E0009EE711238DF8053074E721238DF8053090
:10B4F00070E711238DF8043092E721238DF8043092
:10B500008EE731238DF804308AE711238DF8093056
:10B51000AFE712238DF80930ABE731238DF80930FE
:10B52000A7E721238DF80930A3E700BF90DF70471C
:10B53000A5DF7047B5DF704770B5002384B00024E5
:10B5400060F30F0360F31F436A46204602A9CDE96A
:10B5500002340094ADF80440FFF7E8FF054610B947
:10B56000284604B070BD124B124EF61AF608FDF7CD
:10B570004FFA360446F0010603460F49224630468C
:10B58000FBF71EFBBDF80020BDF8023052EA0301B4
:10B5900003D00A493046FBF713FBBDF80420002A0C
:10B5A000DED030460649FBF733FA284604B070BDBA
:10B5B000C8DC020010DD0200C4D6020010D7020071
:10B5C00050D7020008B90E20704730B403464FF040
:10B5D00017121B25002041F61B3419611A60C3F8AD
:10B5E00006201D7158819C8130BC70478288002ADA
:10B5F00059D110B50388242B82B00C4611D80F2BDB
:10B600004FD9103B142B4CD8DFE803F060744B4B40
:10B610004B4B4B4B4B4B4B4B4B4B4B4B4B4B4B4481
:10B620004E003A2B70D0552B3BD1C388C988A272EB
:10B63000172B38BF17238B4228BF0B461046238198
:10B64000FFF778FF00287ED1E37A53BB236943B329
:10B650002289ADF8042040F6772100912046694602
:10B660009847A37AA3B1E1880020FFF761FF002883
:10B6700062D011280CD0FDF7CBF94A4B4A4902465B
:10B680004A481B1ADB081B0443F00100FBF7C0F912
:10B6900002B010BD007A0B7B984228BF1846FFF716
:10B6A0004BFFA37ADEE770470B69027A4A73002BDF
:10B6B000F7D000204DF67A218DF8050000918DF825
:10B6C0000420694620469847A37ACBE70B790B7391
:10B6D000C27B012A45D0022A33D14988E1802289E0
:10B6E0008A4241D3627B9A42DBD21846FFF724FF9D
:10B6F000A37AB7E74FF01711002241F61B33C4F8C5
:10B7000006106281A381C3E74389C98822698B42FD
:10B7100028BF0B46172B38BF172323814AB1E17A84
:10B7200039B140F677210091ADF8043069462046E2
:10B73000904700236381ABE74FF48073638102B0CD
:10B7400010BDC988CBE7FDF763F9164B18490246CF
:10B7500016481B1ADB081B0443F00100FBF758F9DD
:10B7600072E70988E180BAE70020FFF7E1FE18B927
:10B770000123E372237BB5E7112803D10123A372D0
:10B78000237BAFE7FDF744F9064B0749024607481C
:10B790001B1ADB081B0443F00100FBF739F9237B7C
:10B7A000A0E700BF10DD0200A8D70200C8DC02003D
:10B7B000DCD70200B0DF704766DF704760B159B177
:10B7C0000378DE2B0AD00B684360DE224FF6FF734E
:10B7D00002704380002070470E2070470820704799
:10B7E00038B10378DE2B02D1418000207047082059
:10B7F00070470E20704700BF19B330B5054685B0BD
:10B8000018B10B78DE2B0C4601D005B030BD808816
:10B810004B889842F9D10B7A002B32D12B88112B0F
:10B820004BD0512B12D0012BEFD12B7A012BECD125
:10B83000012525720021FFF7BFFF002851D120729A
:10B84000E3E77047A88863888342DED1AB79022B97
:10B85000DBD1AA7B02F0FD01042935D0052AD4D121
:10B8600000226946C1E902224A600092ADF8042034
:10B870008DF80030FFF79EFF0028C6D06368984718
:10B88000C3E70021FFF798FF0346D8B1112818D06D
:10B89000636898472B88112B0BD0512BD2D0012BEA
:10B8A000B3D12B7AAA88012BAFD160889042ACD15A
:10B8B000BEE7AA8863889A42A7D14FF6FF736380D8
:10B8C000A3E701232372E5E7694600224FF4C07520
:10B8D0004A600092C1E902228DF80030ADF80450B0
:10B8E000C8E71128CAD125728FE700BFA8DF7047CB
:10B8F000AEDF704762DF70470288502A00D0704781
:10B9000010B44A88C488944202D05DF8044B704752
:10B91000028A012AF9D14B69002BF6D0827C5DF8AE
:10B92000044B8088184700BFF0B5324B04460D46E3
:10B930000FCB2D6865618FB002AD85E80F002846FA
:10B9400004F11201FFF7D6FF08B10FB0F0BDA37CE0
:10B950008DF80630224641F2235301A90120ADF8AB
:10B960000430FFF7C3FF0028EFD10146202206A8CC
:10B9700000F0BCFA9DF82530A17C8DF81A10224603
:10B9800023F01203012543F0120341F224574FF034
:10B99000011632F80A0B8DF8253006A9ADF818709B
:10B9A00007968DF829508DF82B50FFF783FC00285F
:10B9B000CBD10146202206A800F098FA9DF8253048
:10B9C000A77C0796224623F00A0343F00A0332F8C5
:10B9D000020B8DF8295006A941F225548DF82A5002
:10B9E0008DF825308DF81A70ADF81840FFF762FC1D
:10B9F0000FB0F0BD1CD8020070B50D4688B01346DC
:10BA00000446012604A8102200218DF80730ADF865
:10BA10000E6000F06BFA6B89ADF810300DF1070283
:10BA20000DF10E03204604A9CDE906328DF812600F
:10BA3000FFF75EFF08B070BD10DF704770B53C4D7A
:10BA40002B7884B0002B66D13A4E3B49012302A8E3
:10BA50003370FCF79BFF039B23B90EE0FCF7A0FFBC
:10BA6000039B53B1D3E9002100209047044602A86C
:10BA7000002CF3D1204604B070BD304902A8FCF779
:10BA800085FF039B4BB1D3E900210020904702A81A
:10BA9000FCF786FF039B002BF5D1294A002312688F
:10BAA0008DF8083002A80192FBF780FF254901A814
:10BAB000FFF7C2FFB0FA80F304465B099DF8080067
:10BAC0002B70FBF799FF002CD4D11F4B1F491C7022
:10BAD000347091F81623EC2352091341DB071ED56D
